:100000000C9438000C9455000C9455000C94550039
:100010000C9455000C9455000C9455000C9455000C
:100020000C9455000C9455000C9455000C945500FC
:100030000C9455000C9482030C9455000C945500BC
:100040000C94A2040C9455000C9455000C9455008B
:100050000C9455000C9455000C9455000C945500CC
:100060000C9455000C9455000C9455000C945500BC
:1000700011241FBECFEFD4E0DEBFCDBF13E0A0E060
:10008000B1E0E0E8FAE002C005900D92AE30B107B1
:10009000D9F713E0AEE0B3E001C01D92A233B1077F
:1000A000E1F70E9411050C943E050C940000282FE6
:1000B000662331F0E2E3F0E080818061808305C057
:1000C000E2E3F0E080818F7E8083222334F4E2E358
:1000D000F0E080818860808305C0E2E3F0E0808109
:1000E000877F8083922F26FF06C0E2E3F0E08081C5
:1000F0008460808305C0E2E3F0E080818B7F8083B1
:1001000095FF06C0E2E3F0E080818260808305C055
:10011000E2E3F0E080818D7F808394FF06C0E2E31C
:10012000F0E080818160808305C0E2E3F0E08081BF
:100130008E7F80830000E2E3F0E080818062808334
:10014000000080818F7D808393FF04C08081886060
:10015000808305C0E2E3F0E08081877F808392FFA7
:1001600006C0E2E3F0E080818460808305C0E2E3C2
:10017000F0E080818B7F808391FF06C0E2E3F0E0B6
:1001800080818260808305C0E2E3F0E080818D7F22
:10019000808390FF06C0E2E3F0E08081816080838D
:1001A00005C0E2E3F0E080818E7F80830000E2E31F
:1001B000F0E0808180628083000080818F7D808379
:1001C0008081886080838081846080838081826078
:1001D0008083808181608083662349F4243038F4F1
:1001E00089E991E00197F1F700C0000008959DE0D2
:1001F0009A95F1F70000089561E00E945700089574
:10020000CF93DF93FC018491882349F0EF0121967D
:100210000E94FC00FE01219684918823C9F7DF919A
:10022000CF910895CF93DF93FC018081882339F02B
:10023000EF010E94FC00898121968823D1F7DF918C
:10024000CF91089560E00E945700089582E00E94D7
:100250002201089581E00E942201089580580E94A1
:1002600022010895E1E3F0E0808180628083808153
:1002700080618083808188608083808184608083C6
:10028000808182608083808181608083E2E3F0E00E
:1002900080818F7D808380818F7E80838081886054
:1002A000808380818460808380818260808380817C
:1002B0008160808385EA9EE00197F1F700C000002D
:1002C0008081877F808380818B7F80830000808115
:1002D00080628083000080818F7D808380E094E055
:1002E0000197F1F700C000008081806280830000E8
:1002F00080818F7D808391E29A95F1F70000808163
:1003000080628083000080818F7D80838DE08A956C
:10031000F1F7000080818E7F808300008081806201
:100320008083000080818F7D80839DE09A95F1F726
:10033000000080818E7F80830000808180628083C6
:10034000000080818F7D80830000808188608083B1
:100350000000808180628083000080818F7D8083A7
:100360008DE08A95F1F7000088E00E9422010E944A
:100370002A0186E00E9422018CE00E942201089559
:10038000E2E1F1E020E030E041E251E081919927A3
:1003900087FD9095280F391FE417F507B9F78FE00F
:1003A00090E0909319038093180330931F032093D8
:1003B0001E03089589E090E090932703809326031D
:1003C00083E090E090931B0380931A0386E090E013
:1003D00090932D0380932C038CE090E090932B035B
:1003E00080932A0308950895E3E5F0E0108288EBF6
:1003F00098E80197F1F782E0808308950F96909333
:100400001D0380931C038BBD1ABC08959C018AE0D8
:100410008EBDEBE3F0E080818160808380912403D6
:1004200090912503853091052CF401969093250336
:1004300080932403E0912403F0912503EE0FFF1F26
:10044000E25FFC4F318320830E94F40108950F97EF
:1004500090931D0380931C038BBD1ABC08950E94CA
:10046000DA0185B3282F30E0309323032093220351
:1004700040912603509127032417350719F48091E2
:100480002A0385BB80912A0390912B0328173907F3
:1004900019F480912C0385BB80912C0390912D033E
:1004A0002817390719F480911A0385BB80911A0324
:1004B00090911B032817390709F445BB08950E9442
:1004C000DA0185B3282F30E03093230320932203F1
:1004D00040912603509127032417350719F4809182
:1004E0001A0385BB80912A0390912B0328173907A3
:1004F00009F445BB40912C0350912D032417350777
:1005000009F485BB80911A0390911B0328173907C2
:1005100009F445BB08951EBC1BBA0895CF93DF9321
:100520000E94C00110920703109206038FEF9FEF05
:1005300090932103809320039093250380932403B9
:100540008091180390911903992314F12FEF3FEF35
:10055000C2E1D1E0C9010196909321038093200369
:10056000FE01E80FF91F8081992787FD90959093F0
:100570000703809306030E94060220912003309116
:10058000210380911803909119032817390714F358
:10059000DF91CF910895C99B1DC080910A0390916E
:1005A0000B03853091052CF4019690930B038093F7
:1005B0000A0388EB98E80197F1F780910603909180
:1005C0000703049690931D0380931C0390930703E5
:1005D00080930603CA9B16C080910C0390910D0373
:1005E000853091052CF4019690930D0380930C03B4
:1005F00088EB98E80197F1F780912E0390912F03F3
:100600000E94FE01CB9B06C081E090E090932903FD
:10061000809328030895C99B1DC080910A0390917F
:100620000B03823091052CF0019790930B0380937C
:100630000A0388EB98E80197F1F7809106039091FF
:100640000703049790931D0380931C039093070363
:1006500080930603CA9B16C080910C0390910D03F2
:10066000823091052CF0019790930D0380930C0339
:1006700088EB98E80197F1F780912E0390912F0372
:100680000E942702CB9B04C01092290310922803DA
:100690000895C89B03C081E08BBB01C01BBA809149
:1006A000080390910903019690930903809308032E
:1006B000059731F481E090E090930903809308035B
:1006C00088EB98E80197F1F7089588EB98E801978F
:1006D000F1F7CC9B0AC080911E0390911F03909369
:1006E0003103809330030E948E02CC990AC080911E
:1006F00006039091070390933103809330030E9487
:10070000060208951F920F920FB60F9211242F9395
:100710003F934F935F936F937F938F939F93AF9389
:10072000BF93EF93FF938091300390913103019732
:10073000909331038093300390932303809322039B
:10074000892B11F40E948B02809128039091290338
:10075000019711F40E945F02809128039091290370
:10076000892B11F40E942F02FF91EF91BF91AF915D
:100770009F918F917F916F915F914F913F912F91B9
:100780000F900FBE0F901F901895CF93DF93EC0141
:100790008130910521F481E30E94FC0015C0823074
:1007A000910521F482E30E94FC0013C0833091057F
:1007B00021F483E30E94FC000CC08430910521F4F5
:1007C00084E30E94FC0005C0259719F485E30E948C
:1007D000FC00DF91CF9108950F931F938C0187E464
:1007E0000E942E01C8010E94C5031F910F91089518
:1007F0000F931F938C0187E40E942E01C8010E9471
:10080000C5031F910F910895CF93DF93EC018130C1
:10081000910521F481E30E94FC0015C0823091050E
:1008200021F482E30E94FC0013C08330910521F47F
:1008300083E30E94FC000CC08430910521F484E322
:100840000E94FC0005C0259719F485E30E94FC0076
:10085000DF91CF9108950F931F938C0186E00E9442
:100860002E01C8010E9404041F910F9108950F9357
:100870001F938C0186E00E942E01C8010E9404048F
:100880001F910F910895CF93DF93EC0189E40E94AB
:100890002E01C130D10541F480E091E00E941201A7
:1008A0008EE30E94FC0009C0CD2B39F48CE30E943A
:1008B000FC0080E091E00E941201DF91CF91089549
:1008C0000F931F93CF93DF939C01EB018A0189B3B0
:1008D00090E083709070892B19F0C9010E942B045D
:1008E00089B3857019F0CE010E94EC0389B3897039
:1008F00019F0C8010E944304DF91CF911F910F911D
:1009000008950F931F93CF93DF939C01EB018A010E
:1009100089B390E083709070892B19F0C9010E940F
:10092000370489B3857019F0CE010E94F80389B3AA
:10093000897019F0C8010E944304DF91CF911F9183
:100940000F9108951F920F920FB60F9211242F93BB
:100950003F934F935F936F937F938F939F93AF9347
:10096000BF93EF93FF9386B38A7011F40E94CB027A
:10097000B3991CC060910C0370910D034091280342
:100980005091290380910A0390910B030E948104E6
:1009900060910C0370910D0340912803509129033D
:1009A00080910A0390910B030E94600486B38C70BF
:1009B00011F40E940B03B39B02C00E944903B39938
:1009C0000EC0EBE3F0E0208181E090E000900803AE
:1009D00002C0880F991F0A94E2F7282B208386B360
:1009E000897011F40E946503FF91EF91BF91AF915F
:1009F0009F918F917F916F915F914F913F912F9137
:100A00000F900FBE0F901F90189583E091E00E9409
:100A1000120180E40E942E018AE091E00E941201FE
:100A200008950E9432010E942A010E9405050E9439
:100A3000C0019FE094BB83E085BB8FE18ABBEBE301
:100A4000F0E0108217BA98BB8BEA90E090932F03E6
:100A500080932E038BEA8BBD1ABC1DBC1CBC1FBC33
:100A60008AE083BF8AEF81BF12BE81E489BF82E042
:100A700080831EBC0E94DA017894FFCFF894FFCFE8
:100A80002D2D00646F7365203D00737065656420D3
:100A90003D000109010804080000000000000000FA
:100AA0000000000000000000000000000000000046
:100AB0000000000000000000000000000000000036
:100AC0000000000000000000000000000000000026
:100AD0000000000000000000000000000000000016
:100AE0000000000000000000000000000000000006
:100AF00000000000000000000000000000000000F6
:100B000000000000000000000000000000000000E5
:100B100000000000000000000000000000000000D5
:100B200000000000000000000000000000000000C5
:100B300000000000000000000000000000000000B5
:100B400000000000000000000000000000000000A5
:100B50000000000000000000000000000000000095
:100B60000000000000000000000000000000000085
:100B70000000000000000000000000000000000075
:100B80000000000000000000000000000000000065
:100B90000000000000000000000000000000000055
:100BA0000000000000000000000000000000000045
:100BB0000000000000000000000000000000000035
:100BC0000000000000000000000000000000000025
:100BD0000000000000000000000000000000000015
:100BE0000000000000000000000000000000000005
:100BF00000000000000000000000000000000000F5
:100C000000000000000000000000000000000000E4
:100C100000000000000000000000000000000000D4
:100C200000000000000000000000000000000000C4
:100C300000000000000000000000000000000000B4
:100C400000000000000000000000000000000000A4
:100C50000000000000000000000000000000000094
:100C60000000000000000000000000000000000084
:100C70000000000000000000000000000000000074
:0E0C800000000000000004000100010001005F
:040000030000040CE9
:00000001FF
